:100000000C945D000C9485000C9485000C94850084
:100010000C9485000C9485000C9485000C9485004C
:100020000C9485000C9485000C9485000C9482013E
:100030000C9485000C943E020C9485000C94850071
:100040000C9438010C9485000C9485000C94850068
:100050000C9485000C9485000C9485000C9485000C
:100060000C9485000C9485000000000024002700FB
:100070002A0000000000250028002B0004040404CE
:100080000404040402020202020203030303030342
:10009000010204081020408001020408102001021F
:1000A00004081020000000080002010000030407FB
:1000B0000000000000000000600311241FBECFEF0D
:1000C000D8E0DEBFCDBF11E0A0E0B1E0E4EEF7E0A4
:1000D00002C005900D92A030B107D9F721E0A0E051
:1000E000B1E001C01D92A333B207E1F710E0CDE506
:1000F000D0E004C02197FE010E94EA03CC35D1076D
:10010000C9F70E944F020C94F0030C9400008F92E8
:100110009F92AF92BF92FF920F931F93CF93DF9363
:10012000F09030012BE02F1508F44CC020913201E3
:1001300008E512E0021B110927FD1395000F111F9E
:10014000000F111F20913101C8E8D0E0C21BD10976
:1001500027FDD395CC0FDD1FCC0FDD1F4E010D2EDB
:10016000000CAA08BB089801012E000C440B550B8B
:10017000281939094A095B09DC010E94A50324EB0F
:1001800030E040E050E00E947B03820E931EA41EEC
:10019000B51E8C169D062CF0E801801691060CF415
:1001A000E4012297CC0FDD1F2FB7F8948F2D90E03C
:1001B000FC01EE0FFF1FE80FF91FE45FFE4FD28333
:1001C000C1832FBFDF91CF911F910F91FF90BF90FF
:1001D000AF909F908F90089590E0FC01EC55FF4FF9
:1001E0002491FC01E057FF4F3491FC01E458FF4F8C
:1001F000E491EE23C9F0222339F0233001F1A8F471
:10020000213019F1223029F1F0E0EE0FFF1FEE58F6
:10021000FF4FA591B4918FB7F894EC91611126C06E
:1002200030953E233C938FBF08952730A9F02830A6
:10023000C9F0243049F7809180008F7D03C0809100
:1002400080008F7780938000DFCF84B58F7784BD67
:10025000DBCF84B58F7DFBCF8091B0008F7780930B
:10026000B000D2CF8091B0008F7DF9CF3E2BDACF96
:100270001F920F920FB60F9211242F933F938F93DB
:100280009F93AF93BF938091080190910901A09132
:100290000A01B0910B013091070123E0230F2D37A4
:1002A00058F50196A11DB11D209307018093080107
:1002B00090930901A0930A01B0930B01809103016F
:1002C00090910401A0910501B09106010196A11D34
:1002D000B11D8093030190930401A0930501B09395
:1002E0000601BF91AF919F918F913F912F910F90F8
:1002F0000FBE0F901F90189526E8230F0296A11DA0
:10030000B11DD2CF1F920F920FB60F9211242F93CF
:100310003F934F935F936F937F938F939F93AF938D
:10032000BF93CF93DF93EF93FF9380910101C0912F
:100330000001D0E087FF24C0109285001092840055
:10034000809101018F5F8093010180910101082E4E
:10035000000C990B8C179D0724F4809101018C30BF
:10036000C4F18091840090918500049680349C496A
:1003700008F47AC08091840090918500049676C03C
:1003800080910101082E000C990B8C179D07C4F673
:10039000E09101018E2FEE0F990BFC01EE0FFF1F74
:1003A000E80FF91FE45FFE4F808186FFC9CFE0911F
:1003B00001018E2FEE0F990BFC01EE0FFF1FE80FCE
:1003C000F91FE45FFE4F808160E08F730E94EC00B4
:1003D000B7CF2091840030918500E09101018E2FEC
:1003E000EE0F990BFC01EE0FFF1FE80FF91FE45F02
:1003F000FE4F81819281820F931F90938900809399
:100400008800E09101018E2FEE0F990BFC01EE0F99
:10041000FF1FE80FF91FE45FFE4F808186FF11C0C8
:10042000E09101018E2FEE0F990BFC01EE0FFF1FE3
:10043000E80FF91FE45FFE4F808161E08F730E9437
:10044000EC00FF91EF91DF91CF91BF91AF919F9120
:100450008F917F916F915F914F913F912F910F906D
:100460000FBE0F901F90189580E49CE9909389002F
:10047000809388008FEF80930101E3CF1F920F924A
:100480000FB60F9211248F93809102018F5F80939A
:1004900002018F910F900FBE0F901F9018957894C6
:1004A00084B5826084BD84B5816084BD85B5826079
:1004B00085BD85B5816085BD80916E00816080932A
:1004C0006E00109281008091810082608093810093
:1004D00080918100816080938100809180008160A3
:1004E000809380008091B10084608093B1008091FE
:1004F000B00081608093B00080917A008460809326
:100500007A0080917A00826080937A0080917A00EC
:10051000816080937A0080917A00806880937A006D
:100520001092C1008AB1806E8AB984B1897F84B982
:10053000249A80EC80937C0083E880937A0083E0A7
:1005400080938100109285001092840080916F004A
:10055000816080936F007894109202018091300145
:100560008C3008F068C0E8E9F0E02491E4E8F0E0BD
:100570008491882399F090E0880F991FFC01E85935
:10058000FF4FA591B491FC01EE58FF4F85919491D6
:100590008FB7F894EC91E22BEC938FBF80913001F0
:1005A000282F30E0F901EE0FFF1FE20FF31FE45F89
:1005B000FE4F9081907C9860908310923101109250
:1005C00032012CE0622F0E94DE03829FB0011124D1
:1005D00030E020E0AB01420F531FFA01EE0FFF1F86
:1005E000E40FF51FE45FFE4F908196FD16C02F5F6C
:1005F0003F4F2C30310571F781110FC010928000F0
:1006000082E0809381001092850010928400B19A5C
:1006100080916F00826080936F00E09130018E2F97
:1006200090E0FC01EE0FFF1FE80FF91FE45FFE4FA3
:1006300080818064808390E080E00E94870010E2E7
:1006400000E1C0E0D0E080917C0080937C0080914C
:100650007A00806480937A0080917A0086FDFCCFD6
:100660008091780090917900199B21C01A9B1FC03E
:10067000843F9140E0F05E9A5F9884EB90E00E94A6
:1006800087008091840090918500883C910551F409
:1006900010928500109284008BB181278BB985B1AF
:1006A000802785B9209779F20E940000CCCF5E9810
:1006B0005F9A2C985D9890E080E00E948700F2CFCE
:1006C000809100018C3098F491E0980F9093000194
:1006D0008093300190E0FC01EE0FFF1FE80FF91F3F
:1006E000E45FFE4F88EB9BE09283818308958FEF58
:1006F000809330010895052E97FB1EF400940E940C
:10070000920357FD07D00E94AD0307FC03D04EF4BF
:100710000C94920350954095309521953F4F4F4F43
:100720005F4F089590958095709561957F4F8F4F9D
:100730009F4F08950E94CF03A59F900DB49F900DE9
:10074000A49F800D911D11240895B7FF0C949A0366
:100750000E949A03821B930B0895A1E21A2EAA1BF2
:10076000BB1BFD010DC0AA1FBB1FEE1FFF1FA21761
:10077000B307E407F50720F0A21BB30BE40BF50B5E
:10078000661F771F881F991F1A9469F760957095E7
:10079000809590959B01AC01BD01CF010895A29F6A
:1007A000B001B39FC001A39F700D811D1124911D45
:1007B000B29F700D811D1124911D0895991B79E040
:1007C00004C0991F961708F0961B881F7A95C9F7E1
:1007D00080950895EE0FFF1F0590F491E02D099488
:0407E000F894FFCFBB
:00000001FF
